:1000000000308A00852800000A108A100A11820731
:1000100030345C344134443445344234553447340C
:1000200039343234353438345C345A3430345C3416
:100030004134503430343634253458345C345A34F6
:1000400000344A3084008313000803193428023036
:10005000A100A001A00B2A28A10B29289730A000FD
:10006000A00B3028800B2728003425088400831338
:10007000261883174C088000840A8001A50A0319FA
:10008000A60A0034CB1B54280F30A0004A0EA0054E
:100090000A30200203184F283030A00751284B089F
:1000A000A0072008CC0035200F30CA050A304A02CC
:1000B00003185C2830305E28CB134B08CA074A0867
:1000C000CC003520F0288316851283128512083063
:1000D000A1006A280000A1177B28A113CA0C0318ED
:1000E0008516031C851221177B282113A10B6E286E
:1000F0007928000085161C308400840B7D28802818
:10010000A11B6D28211B75280629840183131F302C
:100110008305713083168F008512831285161F1395
:1001200083161F109F101F119F1107308312990013
:10013000A501A6011F1383161F109F101F119F11E9
:100140001730950081131F30850002308312C900DB
:10015000FA30CA002120C90BA82883168515003063
:10016000831285190130C9008316051500308312EA
:1001700005190130A0000310A00D20084907CB008D
:10018000831685140030831285180130A000A00D5D
:10019000A00DFC30A00520084B07CD0083160514E8
:1001A0000030831205180130A000A00DA00DA00D95
:1001B000F830A00520084D07A700A6012830A500AB
:1001C000C90149080420C90AA000CC003520143018
:1001D0004902031DE1282708CA003730CB00422816
:1001E0005C30CC0035205A30CC003520C801283096
:1001F000480784008313800803190B292830480717
:10020000840083130008C900CA0063283C30CA0078
:0A0210002120C80AF7280B2963001B
:02400E00C43FAD
:00000001FF
;PIC12F683
